{
  "contractName": "token2",
  "abi": [
    {
      "inputs": [],
      "stateMutability": "nonpayable",
      "type": "constructor"
    },
    {
      "anonymous": false,
      "inputs": [
        {
          "indexed": true,
          "internalType": "address",
          "name": "owner",
          "type": "address"
        },
        {
          "indexed": true,
          "internalType": "address",
          "name": "spender",
          "type": "address"
        },
        {
          "indexed": false,
          "internalType": "uint256",
          "name": "value",
          "type": "uint256"
        }
      ],
      "name": "Approval",
      "type": "event"
    },
    {
      "anonymous": false,
      "inputs": [
        {
          "indexed": true,
          "internalType": "address",
          "name": "from",
          "type": "address"
        },
        {
          "indexed": true,
          "internalType": "address",
          "name": "to",
          "type": "address"
        },
        {
          "indexed": false,
          "internalType": "uint256",
          "name": "value",
          "type": "uint256"
        }
      ],
      "name": "Transfer",
      "type": "event"
    },
    {
      "inputs": [
        {
          "internalType": "address",
          "name": "",
          "type": "address"
        },
        {
          "internalType": "address",
          "name": "",
          "type": "address"
        }
      ],
      "name": "allowances",
      "outputs": [
        {
          "internalType": "uint256",
          "name": "",
          "type": "uint256"
        }
      ],
      "stateMutability": "view",
      "type": "function"
    },
    {
      "inputs": [
        {
          "internalType": "address",
          "name": "",
          "type": "address"
        }
      ],
      "name": "balances",
      "outputs": [
        {
          "internalType": "uint256",
          "name": "",
          "type": "uint256"
        }
      ],
      "stateMutability": "view",
      "type": "function"
    },
    {
      "inputs": [],
      "name": "decimals",
      "outputs": [
        {
          "internalType": "uint256",
          "name": "",
          "type": "uint256"
        }
      ],
      "stateMutability": "view",
      "type": "function"
    },
    {
      "inputs": [],
      "name": "name",
      "outputs": [
        {
          "internalType": "string",
          "name": "",
          "type": "string"
        }
      ],
      "stateMutability": "view",
      "type": "function"
    },
    {
      "inputs": [],
      "name": "symbol",
      "outputs": [
        {
          "internalType": "string",
          "name": "",
          "type": "string"
        }
      ],
      "stateMutability": "view",
      "type": "function"
    },
    {
      "inputs": [],
      "name": "totalSupply",
      "outputs": [
        {
          "internalType": "uint256",
          "name": "",
          "type": "uint256"
        }
      ],
      "stateMutability": "view",
      "type": "function"
    },
    {
      "inputs": [
        {
          "internalType": "address",
          "name": "account",
          "type": "address"
        }
      ],
      "name": "balanceOf",
      "outputs": [
        {
          "internalType": "uint256",
          "name": "",
          "type": "uint256"
        }
      ],
      "stateMutability": "view",
      "type": "function"
    },
    {
      "inputs": [
        {
          "internalType": "address",
          "name": "owner",
          "type": "address"
        },
        {
          "internalType": "address",
          "name": "spender",
          "type": "address"
        }
      ],
      "name": "allowance",
      "outputs": [
        {
          "internalType": "uint256",
          "name": "",
          "type": "uint256"
        }
      ],
      "stateMutability": "view",
      "type": "function"
    },
    {
      "inputs": [
        {
          "internalType": "address",
          "name": "recipient",
          "type": "address"
        },
        {
          "internalType": "uint256",
          "name": "amount",
          "type": "uint256"
        }
      ],
      "name": "transfer",
      "outputs": [
        {
          "internalType": "bool",
          "name": "",
          "type": "bool"
        }
      ],
      "stateMutability": "nonpayable",
      "type": "function"
    },
    {
      "inputs": [
        {
          "internalType": "address",
          "name": "spender",
          "type": "address"
        },
        {
          "internalType": "uint256",
          "name": "amount",
          "type": "uint256"
        }
      ],
      "name": "approve",
      "outputs": [
        {
          "internalType": "bool",
          "name": "",
          "type": "bool"
        }
      ],
      "stateMutability": "nonpayable",
      "type": "function"
    },
    {
      "inputs": [
        {
          "internalType": "address",
          "name": "sender",
          "type": "address"
        },
        {
          "internalType": "address",
          "name": "recipient",
          "type": "address"
        },
        {
          "internalType": "uint256",
          "name": "amount",
          "type": "uint256"
        }
      ],
      "name": "transferFrom",
      "outputs": [
        {
          "internalType": "bool",
          "name": "",
          "type": "bool"
        }
      ],
      "stateMutability": "nonpayable",
      "type": "function"
    },
    {
      "inputs": [
        {
          "internalType": "uint256",
          "name": "amount",
          "type": "uint256"
        }
      ],
      "name": "mint",
      "outputs": [],
      "stateMutability": "nonpayable",
      "type": "function"
    },
    {
      "inputs": [
        {
          "internalType": "uint256",
          "name": "amount",
          "type": "uint256"
        }
      ],
      "name": "burn",
      "outputs": [],
      "stateMutability": "nonpayable",
      "type": "function"
    }
  ],
  "bytecode": "0x608060405260645f556040518060400160405280600981526020017f636f6d703136335f320000000000000000000000000000000000000000000000815250600390816200004e919062000355565b506040518060400160405280600581526020017f636f6d70320000000000000000000000000000000000000000000000000000008152506004908162000095919062000355565b506012600555348015620000a7575f80fd5b505f5460015f3373ffffffffffffffffffffffffffffffffffffffff1673ffffffffffffffffffffffffffffffffffffffff1681526020019081526020015f208190555062000439565b5f81519050919050565b7f4e487b71000000000000000000000000000000000000000000000000000000005f52604160045260245ffd5b7f4e487b71000000000000000000000000000000000000000000000000000000005f52602260045260245ffd5b5f60028204905060018216806200016d57607f821691505b60208210810362000183576200018262000128565b5b50919050565b5f819050815f5260205f209050919050565b5f6020601f8301049050919050565b5f82821b905092915050565b5f60088302620001e77fffffffffffffffffffffffffffffffffffffffffffffffffffffffffffffffff82620001aa565b620001f38683620001aa565b95508019841693508086168417925050509392505050565b5f819050919050565b5f819050919050565b5f6200023d6200023762000231846200020b565b62000214565b6200020b565b9050919050565b5f819050919050565b62000258836200021d565b62000270620002678262000244565b848454620001b6565b825550505050565b5f90565b6200028662000278565b620002938184846200024d565b505050565b5b81811015620002ba57620002ae5f826200027c565b60018101905062000299565b5050565b601f8211156200030957620002d38162000189565b620002de846200019b565b81016020851015620002ee578190505b62000306620002fd856200019b565b83018262000298565b50505b505050565b5f82821c905092915050565b5f6200032b5f19846008026200030e565b1980831691505092915050565b5f6200034583836200031a565b9150826002028217905092915050565b6200036082620000f1565b67ffffffffffffffff8111156200037c576200037b620000fb565b5b62000388825462000155565b62000395828285620002be565b5f60209050601f831160018114620003cb575f8415620003b6578287015190505b620003c2858262000338565b86555062000431565b601f198416620003db8662000189565b5f5b828110156200040457848901518255600182019150602085019450602081019050620003dd565b8683101562000424578489015162000420601f8916826200031a565b8355505b6001600288020188555050505b505050505050565b610dc480620004475f395ff3fe608060405234801561000f575f80fd5b50600436106100cd575f3560e01c806342966c681161008a57806395d89b411161006457806395d89b4114610237578063a0712d6814610255578063a9059cbb14610271578063dd62ed3e146102a1576100cd565b806342966c68146101bb57806355b6ed5c146101d757806370a0823114610207576100cd565b806306fdde03146100d1578063095ea7b3146100ef57806318160ddd1461011f57806323b872dd1461013d57806327e235e31461016d578063313ce5671461019d575b5f80fd5b6100d96102d1565b6040516100e69190610a70565b60405180910390f35b61010960048036038101906101049190610b21565b61035d565b6040516101169190610b79565b60405180910390f35b61012761044a565b6040516101349190610ba1565b60405180910390f35b61015760048036038101906101529190610bba565b610452565b6040516101649190610b79565b60405180910390f35b61018760048036038101906101829190610c0a565b6106c4565b6040516101949190610ba1565b60405180910390f35b6101a56106d9565b6040516101b29190610ba1565b60405180910390f35b6101d560048036038101906101d09190610c35565b6106df565b005b6101f160048036038101906101ec9190610c60565b6106f9565b6040516101fe9190610ba1565b60405180910390f35b610221600480360381019061021c9190610c0a565b610719565b60405161022e9190610ba1565b60405180910390f35b61023f61075f565b60405161024c9190610a70565b60405180910390f35b61026f600480360381019061026a9190610c35565b6107eb565b005b61028b60048036038101906102869190610b21565b610805565b6040516102989190610b79565b60405180910390f35b6102bb60048036038101906102b69190610c60565b610964565b6040516102c89190610ba1565b60405180910390f35b600380546102de90610ccb565b80601f016020809104026020016040519081016040528092919081815260200182805461030a90610ccb565b80156103555780601f1061032c57610100808354040283529160200191610355565b820191905f5260205f20905b81548152906001019060200180831161033857829003601f168201915b505050505081565b5f8160025f3373ffffffffffffffffffffffffffffffffffffffff1673ffffffffffffffffffffffffffffffffffffffff1681526020019081526020015f205f8573ffffffffffffffffffffffffffffffffffffffff1673ffffffffffffffffffffffffffffffffffffffff1681526020019081526020015f20819055508273ffffffffffffffffffffffffffffffffffffffff163373ffffffffffffffffffffffffffffffffffffffff167f8c5be1e5ebec7d5bd14f71427d1e84f3dd0314c0f7b2291e5b200ac8c7c3b925846040516104389190610ba1565b60405180910390a36001905092915050565b5f8054905090565b5f8160015f8673ffffffffffffffffffffffffffffffffffffffff1673ffffffffffffffffffffffffffffffffffffffff1681526020019081526020015f2054101561049c575f80fd5b8160025f8673ffffffffffffffffffffffffffffffffffffffff1673ffffffffffffffffffffffffffffffffffffffff1681526020019081526020015f205f3373ffffffffffffffffffffffffffffffffffffffff1673ffffffffffffffffffffffffffffffffffffffff1681526020019081526020015f20541015610520575f80fd5b8160015f8673ffffffffffffffffffffffffffffffffffffffff1673ffffffffffffffffffffffffffffffffffffffff1681526020019081526020015f205f82825461056c9190610d28565b925050819055508160025f8673ffffffffffffffffffffffffffffffffffffffff1673ffffffffffffffffffffffffffffffffffffffff1681526020019081526020015f205f3373ffffffffffffffffffffffffffffffffffffffff1673ffffffffffffffffffffffffffffffffffffffff1681526020019081526020015f205f8282546105fa9190610d28565b925050819055508160015f8573ffffffffffffffffffffffffffffffffffffffff1673ffffffffffffffffffffffffffffffffffffffff1681526020019081526020015f205f82825461064d9190610d5b565b925050819055508273ffffffffffffffffffffffffffffffffffffffff168473ffffffffffffffffffffffffffffffffffffffff167fddf252ad1be2c89b69c2b068fc378daa952ba7f163c4a11628f55a4df523b3ef846040516106b19190610ba1565b60405180910390a3600190509392505050565b6001602052805f5260405f205f915090505481565b60055481565b805f808282546106ef9190610d28565b9250508190555050565b6002602052815f5260405f20602052805f5260405f205f91509150505481565b5f60015f8373ffffffffffffffffffffffffffffffffffffffff1673ffffffffffffffffffffffffffffffffffffffff1681526020019081526020015f20549050919050565b6004805461076c90610ccb565b80601f016020809104026020016040519081016040528092919081815260200182805461079890610ccb565b80156107e35780601f106107ba576101008083540402835291602001916107e3565b820191905f5260205f20905b8154815290600101906020018083116107c657829003601f168201915b505050505081565b805f808282546107fb9190610d5b565b9250508190555050565b5f8160015f3373ffffffffffffffffffffffffffffffffffffffff1673ffffffffffffffffffffffffffffffffffffffff1681526020019081526020015f2054101561084f575f80fd5b8160015f3373ffffffffffffffffffffffffffffffffffffffff1673ffffffffffffffffffffffffffffffffffffffff1681526020019081526020015f205f82825461089b9190610d28565b925050819055508160015f8573ffffffffffffffffffffffffffffffffffffffff1673ffffffffffffffffffffffffffffffffffffffff1681526020019081526020015f205f8282546108ee9190610d5b565b925050819055508273ffffffffffffffffffffffffffffffffffffffff163373ffffffffffffffffffffffffffffffffffffffff167fddf252ad1be2c89b69c2b068fc378daa952ba7f163c4a11628f55a4df523b3ef846040516109529190610ba1565b60405180910390a36001905092915050565b5f60025f8473ffffffffffffffffffffffffffffffffffffffff1673ffffffffffffffffffffffffffffffffffffffff1681526020019081526020015f205f8373ffffffffffffffffffffffffffffffffffffffff1673ffffffffffffffffffffffffffffffffffffffff1681526020019081526020015f2054905092915050565b5f81519050919050565b5f82825260208201905092915050565b5f5b83811015610a1d578082015181840152602081019050610a02565b5f8484015250505050565b5f601f19601f8301169050919050565b5f610a42826109e6565b610a4c81856109f0565b9350610a5c818560208601610a00565b610a6581610a28565b840191505092915050565b5f6020820190508181035f830152610a888184610a38565b905092915050565b5f80fd5b5f73ffffffffffffffffffffffffffffffffffffffff82169050919050565b5f610abd82610a94565b9050919050565b610acd81610ab3565b8114610ad7575f80fd5b50565b5f81359050610ae881610ac4565b92915050565b5f819050919050565b610b0081610aee565b8114610b0a575f80fd5b50565b5f81359050610b1b81610af7565b92915050565b5f8060408385031215610b3757610b36610a90565b5b5f610b4485828601610ada565b9250506020610b5585828601610b0d565b9150509250929050565b5f8115159050919050565b610b7381610b5f565b82525050565b5f602082019050610b8c5f830184610b6a565b92915050565b610b9b81610aee565b82525050565b5f602082019050610bb45f830184610b92565b92915050565b5f805f60608486031215610bd157610bd0610a90565b5b5f610bde86828701610ada565b9350506020610bef86828701610ada565b9250506040610c0086828701610b0d565b9150509250925092565b5f60208284031215610c1f57610c1e610a90565b5b5f610c2c84828501610ada565b91505092915050565b5f60208284031215610c4a57610c49610a90565b5b5f610c5784828501610b0d565b91505092915050565b5f8060408385031215610c7657610c75610a90565b5b5f610c8385828601610ada565b9250506020610c9485828601610ada565b9150509250929050565b7f4e487b71000000000000000000000000000000000000000000000000000000005f52602260045260245ffd5b5f6002820490506001821680610ce257607f821691505b602082108103610cf557610cf4610c9e565b5b50919050565b7f4e487b71000000000000000000000000000000000000000000000000000000005f52601160045260245ffd5b5f610d3282610aee565b9150610d3d83610aee565b9250828203905081811115610d5557610d54610cfb565b5b92915050565b5f610d6582610aee565b9150610d7083610aee565b9250828201905080821115610d8857610d87610cfb565b5b9291505056fea2646970667358221220719217dc968c8283107132cca23e10cb586c3d1e13c843fd1adffeb6d1f15ffc64736f6c63430008150033",
  "immutableReferences": {},
  "source": "// SPDX-License-Identifier: MIT\npragma solidity ^0.8.0;\n\ninterface IERC20 {\n    function totalSupply() external view returns (uint);\n\n    function balanceOf(address account) external view returns (uint);\n\n    function transfer(address recipient, uint amount) external returns (bool);\n\n    function allowance(address owner, address spender) external view returns (uint);\n\n    function approve(address spender, uint amount) external returns (bool);\n\n    function transferFrom(\n        address sender,\n        address recipient,\n        uint amount\n    ) external returns (bool);\n\n    event Transfer(address indexed from, address indexed to, uint value);\n    event Approval(address indexed owner, address indexed spender, uint value);\n}\n\n// token 1 with name comp163_1 and symbol comp1\ncontract token1 is IERC20 {\n    // Specify the total supply of tokens\n    uint _totalSupply = 100;\n    function totalSupply() external view returns (uint){\n        return _totalSupply;\n    }\n  \n    // Create a mapping to keep track of balances\n    mapping (address => uint) public balances;\n    function balanceOf(address account) external view returns (uint){\n        return balances[account];\n    }\n \n    // Create a mapping to keep track of allowances\n    mapping (address => mapping(address => uint)) public allowances;\n    function allowance(address owner, address spender) external view returns (uint){\n        return allowances[owner][spender];\n    }\n\n\n    // Specify the name of the token\n    string public name = \"comp163_1\";\n\n    // Specify the symbol of the token\n    string public symbol = \"comp1\";\n\n    // Specify the number of decimals for the token\n    uint public decimals = 18;\n\n\n    // Initialize the total supply and allocate all tokens to the contract creator\n    constructor(){\n        balances[msg.sender] = _totalSupply;\n        \n    }\n\n    // Transfer tokens from the sender to the recipient, and emit the Transfer event\n    function transfer(address recipient, uint amount) external returns (bool) {\n        require(balances[msg.sender] >= amount);\n        balances[msg.sender] -= amount;\n        balances[recipient] += amount;\n        emit Transfer(msg.sender, recipient, amount);\n        return true;\n        \n    }\n\n    // Approve the spender to spend the specified amount of tokens on behalf of the owner, and emit the Approval event\n    function approve(address spender, uint amount) external returns (bool) {\n        allowances[msg.sender][spender] = amount;\n        emit Approval(msg.sender, spender, amount);\n        return true;\n\n    }\n\n    // Transfer tokens from the sender to the recipient, and emit the Transfer event\n    function transferFrom(\n        address sender,\n        address recipient,\n        uint amount\n    ) external returns (bool) {\n        require(balances[sender] >= amount);\n        require(allowances[sender][msg.sender] >= amount);\n        balances[sender] -= amount;\n        allowances[sender][msg.sender] -= amount;\n        balances[recipient] += amount;\n        emit Transfer(sender,recipient,amount);\n        return true;\n    \n    }\n\n    \n    // Mint new tokens and allocate them to the message sender\n    function mint(uint amount) external {\n        _totalSupply += amount;\n   \n    }\n\n    // Burn tokens from the message sender\n    function burn(uint amount) external {\n        _totalSupply -= amount;\n        \n    }\n\n}\n\n// token 2 with name comp163_2 and symbol comp1\ncontract token2 is IERC20 {\n    // Specify the total supply of tokens\n    uint _totalSupply = 100;\n    function totalSupply() external view returns (uint){\n        return _totalSupply;\n    }\n  \n    // Create a mapping to keep track of balances\n    mapping (address => uint) public balances;\n    function balanceOf(address account) external view returns (uint){\n        return balances[account];\n    }\n \n    // Create a mapping to keep track of allowances\n    mapping (address => mapping(address => uint)) public allowances;\n    function allowance(address owner, address spender) external view returns (uint){\n        return allowances[owner][spender];\n    }\n\n\n    // Specify the name of the token\n    string public name = \"comp163_2\";\n\n    // Specify the symbol of the token\n    string public symbol = \"comp2\";\n\n    // Specify the number of decimals for the token\n    uint public decimals = 18;\n\n\n    // Initialize the total supply and allocate all tokens to the contract creator\n    constructor(){\n        balances[msg.sender] = _totalSupply;\n        \n    }\n\n    // Transfer tokens from the sender to the recipient, and emit the Transfer event\n    function transfer(address recipient, uint amount) external returns (bool) {\n        require(balances[msg.sender] >= amount);\n        balances[msg.sender] -= amount;\n        balances[recipient] += amount;\n        emit Transfer(msg.sender, recipient, amount);\n        return true;\n        \n    }\n\n    // Approve the spender to spend the specified amount of tokens on behalf of the owner, and emit the Approval event\n    function approve(address spender, uint amount) external returns (bool) {\n        allowances[msg.sender][spender] = amount;\n        emit Approval(msg.sender, spender, amount);\n        return true;\n\n    }\n\n    // Transfer tokens from the sender to the recipient, and emit the Transfer event\n    function transferFrom(\n        address sender,\n        address recipient,\n        uint amount\n    ) external returns (bool) {\n        require(balances[sender] >= amount);\n        require(allowances[sender][msg.sender] >= amount);\n        balances[sender] -= amount;\n        allowances[sender][msg.sender] -= amount;\n        balances[recipient] += amount;\n        emit Transfer(sender,recipient,amount);\n        return true;\n    \n    }\n\n    \n    // Mint new tokens and allocate them to the message sender\n    function mint(uint amount) external {\n        _totalSupply += amount;\n   \n    }\n\n    // Burn tokens from the message sender\n    function burn(uint amount) external {\n        _totalSupply -= amount;\n        \n    }\n\n}\n",
  "sourcePath": "/Users/shenzhen/Desktop/individual_coursework/Q3/contracts/ERC20.sol",
  "compiler": {
    "name": "solc",
    "version": "0.8.21+commit.d9974bed.Emscripten.clang"
  },
  "schemaVersion": "3.4.16",
  "updatedAt": "2023-11-18T20:56:21.769Z",
  "devdoc": {
    "kind": "dev",
    "methods": {},
    "version": 1
  },
  "userdoc": {
    "kind": "user",
    "methods": {},
    "version": 1
  }
}